:020000040800F2
:100000000047002001010008051A0008051A000831
:10001000051A0008051A0008051A0008000000006B
:10002000000000000000000000000000051A0008A9
:10003000051A000800000000051A00085D540008B9
:100040001B0100081B0100081B0100081B01000820
:100050001B0100081B0100081B0100081B01000810
:100060001B0100081B0100081B0100086D1100089E
:1000700089110008A5110008091200082D120008B6
:1000800051120008B51200081B0100081B010008EE
:10009000018400081B0100081B0100081B01000867
:1000A0001B0100081B0100081B0100081B010008C0
:1000B0001B0100081B0100081B0100081B010008B0
:1000C0001B0100081B0100081B0100081B010008A0
:1000D0001B01000891590008855C00081B010008FD
:1000E0001B0100081B0100081B010008DFF80CD0F1
:1000F00000F02AF800480047018600080047002069
:100100000648804706480047FEE7FEE7FEE7FEE7B1
:10011000FEE7FEE7FEE7FEE7FEE7FEE72D550008F7
:10012000ED00000840EA01039B0703D009E008C97D
:10013000121F08C0042AFAD203E011F8013B00F8AC
:10014000013B521EF9D27047064C074D06E0E068AD
:1001500040F0010394E8070098471034AC42F6D30E
:10016000FFF7C8FF688D0008888D000870B5174E2E
:10017000F06A804710F0020F08BF70BD144C25686C
:10018000706A804761682844411AB1F5806FA4BF46
:100190006068084415DA0029D8BF70BD6068C0F3F4
:1001A0000900C0F5806081420DDC6068094AC0F337
:1001B0000900104406F0B8FD0028C6BF6168084475
:1001C00070BD606070BD0146EFE700005C8B000809
:1001D00060000020FE3200202DE9F04F027883B04D
:1001E000A2F180031F2B04D800F086FC03B0BDE809
:1001F000F08F01F8012B0F4610F8011B06461F294E
:1002000080F06E84DFE811F01F005E007A0093003A
:10021000AC02BA02C0026C0416049C00B0006C046C
:100220006C046C046C046C04B70061018B019B01CD
:10023000030254028B023D044204500455045A0444
:100240006304AA015E043178781C0024062933D0A7
:1002500006DC052930D2DFE801F02F2F2F2F0E000A
:10026000FD2918D002DCF02926D10AE0FE2920D091
:10027000FF2918D020E006242246F949FFF752FF53
:100280001AE0F8490968002918BF202141F0170138
:100290000170012410E00021102201704270817071
:1002A000C170042408E04021017000214170022443
:1002B00002E04021017001243C7003B004F10210FF
:1002C000BDE8F08F307830B101280BD0FF203870B6
:1002D000E54800F000BCE5497078096800F00100CD
:1002E000096805E0E1497078096800F00100496893
:1002F000884700203870DC4800F0EDBB3478002CD3
:100300000CBF0124012C06D0022C18BF002408D0F9
:100310003C7000F021BAD6490120087003F09AFA27
:10032000F6E7D3490220087003F036FAF0E7D04828
:100330000024047003F066FA3C70012000F0CBBB8F
:10034000C848CC4A31880068B0FBF2F0CA4A801C29
:10035000A2FB002040084843B0F1004F80F0C88362
:10036000401E0028FCDCC4E70120787000203870B3
:10037000022000F0B0BB357874787079D6F802604E
:1003800014F0010F60F31F660CD0BC4815F0010F8C
:10039000416841F0806141604FF480400CBFB84932
:1003A000B849086014F0020F0CD0B44815F0020FE1
:1003B000416841F0806141604FF400500CBFB0498A
:1003C000B049086014F0040F08D0A80810F0010F1D
:1003D0004FF020000CBFAC49AC49086014F0800F0E
:1003E0001CBFE80908F0D4FAF6B30121A848D0F8F8
:1003F00004C0A84EDFF8A092A04AA6F10408A9F113
:10040000040A00BF14F0010F08D0536843F0806362
:1004100053603368C3F38033AB4229D114F0020F29
:100420000AD0536843F080635360D8F80030C3F3B8
:100430004033B3EB550F1BD114F0040F06D0D9F89D
:100440000030C3F34013B3EB950F11D114F0200F1C
:1004500018BF5FEA55130BD114F0800F0DD0DAF8F6
:100460000030C3F3801300E007E0B3EBD51F04D0E6
:100470004368A3EB0C038B42C4D38048416841F02E
:1004800080614160834909684268C1F3803142F06C
:100490008062426081480068C0F3403041EA400019
:1004A0007D49096801F0200140EAD1017C480268D9
:1004B000006802F0800241EA121100F0400041EAB7
:1004C00040003870774800F006BBF178306861F37F
:1004D0001F6048B163490A68B0EB920F09D36448C2
:1004E00001214170416015E0FF2038706E4800F036
:1004F000F2BA00EB5202521EB2FBF0F05C4900234C
:1005000002284B7098BF012003D95B4AA2FB002050
:100510004008486000203870634800F0DCBA347846
:10052000711C002C08BF4FF48074204604F0DEFDDF
:1005300000203870E01DC0080121401CEBE030783D
:1005400000F003014A1C4A49C0F380000A7648764D
:10055000002038704FF0011000F0BDBA002007F8FD
:10056000010B012516F8010BA846B0F1010928BFBF
:10057000DFF808A147D300BF16F8014B14F03F0184
:1005800008BF4021C81D4FEAD00BDAF8040014F070
:10059000800F40F08060CAF804004448016821F4EC
:1005A000700114BF41F4000141F4401101604FF4A7
:1005B000005014BF3349324908603A46314620465C
:1005C00003F0E0FCB9F1000F0FD1DAF8040040F0BD
:1005D0008060CAF804003548016821F4700141F4D4
:1005E0004011016026494014086014F0800F03D0C8
:1005F0005F44D8446D1C03E005EB0B005E44451CD2
:10060000B9F10109B8D248EA054000F064BA002007
:1006100007F8010B16F8010B4FF001094D46B0F138
:10062000010A19D316F8018B18F03F0208BF4022C7
:10063000D01DC4083A463146404601F0EFFE09EBB2
:100640000400264400F1010918F0800F1CBF274464
:100650002544BAF1010AE5D245EA094000F03BBA67
:10066000708A00080C000020010002000800002031
:100670000801002040420F00ABAAAAAA00000140D6
:100680001408014010080140140C0140100C0140F6
:10069000001000E00C0801400C0C0140080801406B
:1006A000080C01400100060001000400040801409C
:1006B000F94C16F8012B0020A27642B304F11C0C71
:1006C00004F124034FEA020516F8011B0CF8011B84
:1006D00023F8020B08446D1EF6D1C2B104F11B0CC5
:1006E00004F1320312F0010F04D01CF8011F401A6C
:1006F00023F8020F51080AD09CF80140001B5880D3
:100700001CF8024F001B23F8040F491EF4D10020EF
:100710003870501C012141EA004000F0DCB9DE488D
:100720000178022915D13178C176807E814210D2BC
:100730000E2001F0B3F901F007FD00213970787047
:10074000010AB970010CF970000E3871D34800F03D
:10075000C2B9FF2087F800004FF0011000F0BBB9CC
:10076000CD4831780173B6F801100182B6F8031054
:10077000418200203870CA4800F0ADB93946304691
:1007800000F0DCF900F0A7B9C348007801280FD0C9
:10079000022877D0002038707870B8700320F17884
:1007A00011F0020F18BF40F4802040F0948139E12D
:1007B000DFF8F0924FF0000A504607F1030889F87D
:1007C00000A0741C34F8025B7DB314F801BB1BF06D
:1007D000020F04BF681E019043D01BF0010F1CBF25
:1007E000AD48048A0FD00021584603F075FC02285A
:1007F00002D0012807D061E0641E5FD399F8001091
:100800000029F0D05AE06C1E58D324B91BF0010F18
:1008100018BF4FF00E0BA048058A6946584603F0F2
:100820005BFC022802D0012807D047E06D1E45D3AB
:1008300099F800100029F0D040E0009908F8011B59
:1008400000990AF1010A090A08F8011B0099090C2C
:1008500008F8011B0099090E08F8011B641ED4D288
:100860002CE0E17854F8040B61F31F6000908A4893
:10087000058A6946584603F02FFC022803D0012858
:1008800008D01BE023E06D1E18D399F80010002952
:10089000EFD013E001980AF1010A401E0190E0D266
:1008A0007D48048A00210E2003F016FC022805D1A1
:1008B000641E03D399F800100029F3D087F800A034
:1008C0004FEA1A217970B870A8EB070067E7FD1CA2
:1008D0000197744F4FF00008404687F800806E4A39
:1008E0003178741CD176927E914247D234F802BBA3
:1008F000BBF1000F42D014F8019B19F0010F0CBF9F
:100900004FF00A0A4FF00B0A504601F0C7F819F0F1
:10091000020F19BF6048048AABF10100029043D076
:100920000021484601F0F6FD022802D0012806D039
:100930006CE0641E6AD339780029F1D066E0BBF11F
:10094000010B63D3BBF1000F0AD05348048A6946F8
:10095000484601F0DFFD02280BD001280FD055E0FA
:10096000BAF10A0F1CBF0A2001F098F84FF00E09E7
:10097000EBE7641E4AD339780029E8D046E00099B5
:1009800005F8011B009908F10108090A05F8011B87
:100990000099090C05F8011B0099090E05F8011BC7
:1009A000BBF1010BCED231E0E17854F8040B61F3D6
:1009B0001F6000903848B0F810B06946484601F012
:1009C000A9FD022802D0012807D01FE0BBF1010BCE
:1009D0001CD339780029F0D018E0029808F10108FA
:1009E000401E0290E0D2BAF10A0F1CBF0A2001F0AB
:1009F00055F82948048A00210E2001F08BFD0228B9
:100A000004D1641E02D339780029F4D001994FEA49
:100A1000182281F8008001994A7001998870019824
:100A2000281ABCE6B6F801104FF4802202EB81418F
:100A3000084350E018490878012802D002280BD05A
:100A40000FE03179D6F8010061F31F60009069462C
:100A5000002003F041FB10E03078C876897E8842A0
:100A600001D3FF200AE0082001F018F83179D6F808
:100A7000010061F31F6002F0D9FB002038700848C4
:100A800029E03946304604F0C9FC24E039463046B6
:100A900004F06CFC1FE000000801002005000100CC
:100AA00001000500200000203946304604F06CFBB0
:100AB00011E03946304604F087FB0CE0384604F07C
:100AC0007DFC08E03946304604F012FC03E039466C
:100AD000304604F0A1FB03B000F10110BDE8F08F37
:100AE000FF2007F8010C03B04FF00110BDE8F08FB4
:100AF000401EFDD1FFF7FDBBFF2008704FF0011035
:100B0000704700000A4800210A4A017041701268CB
:100B1000094BB2FBF3F2921E42600173642202821F
:100B200041820122416102764176817602F06ABEFD
:100B3000080100200C000020002D31012DE9F04FAC
:100B4000FF4E054600233078FE4F8FB001281CD0A1
:100B5000022800F08881AC466D1C15F8010B50B1DD
:100B600015F8012B12F0020F02D012F0100F00D076
:100B70002D1D401EF4D10B704B70A5EB0C00022113
:100B80000FB041EA0040BDE8F08FCDE904510020EC
:100B9000891C0B9000913B7007900A9095F801809A
:100BA000AD1CB8F1000F00F0538100BF15F8019B98
:100BB00019F0020F79D00799A1B3348A09F0110016
:100BC00001280BD101A9484603F086FA02280DD16D
:100BD000641E44D339780029F4D0A6E001A90E2080
:100BE00003F07AFA022804D000210791012836D1B7
:100BF00007E0641E02D339780029EFD00021079165
:100C000093E0DDE900120A70019A0099120A01F8D6
:100C1000012F019A120C01F8012F019A120E4A704D
:100C2000891C009119F0100F40D0E87855F804ABFA
:100C3000B6F812B060F31F6A19F0010F18BF348ABA
:100C40000ED00021484603F047FA022802D00128BE
:100C500006D06AE0641E68D339780029F1D064E0D8
:100C6000348A01A9484603F037FA022802D0012845
:100C700006D010E0641E0ED339780029F1D00AE0C6
:100C8000726901991140514505D0BBF1010B02D3A6
:100C900039780029E4D07169019A1140514518BF93
:100CA00040F01000012840D138E050E0348A19F0BB
:100CB000010F13D0079989BB0021484603F00CFAB5
:100CC000022805D0012804BF0121079126D02CE07D
:100CD000641E2AD339780029EED026E001A94846BF
:100CE00003F0FAF9022802D0012806D01DE0641EA4
:100CF0001BD339780029F1D017E0DDE900120A7022
:100D0000019A0099120A01F8012F019A120C01F8B8
:100D1000012F019A120E4A70891C009100210A913C
:100D20000B99491C0B913978F1B3B8F1000F0BD036
:100D300015F8011B11F0020F02D011F0100F00D0B6
:100D40002D1DB8F10108F3D101284BD080E00798A0
:100D5000002818BF348A1AD001A90E2003F0BCF96C
:100D600002282ED00128E0D1DDE9000101700199AF
:100D70000098090A00F8011F0199090C00F8011FE9
:100D80000199090E4170801C009000200790E978BD
:100D900055F8040B19F0200F61F31F6001901ABF82
:100DA00070610120348A00E017E0B9D101A94846FA
:100DB00003F092F902280AD0012808BF0121AED021
:100DC000B3E7641EB1D339780029C5D0ADE7641EFE
:100DD000ABD339780029E9D0A7E7B8F101087FF44F
:100DE000E5AEB1E70799002918BF348A20D001A9E0
:100DF0000E2003F071F9022802D0012806D027E066
:100E0000641E25D339780029F1D021E0DDE90012F4
:100E10000A70019A0099120A01F8012F019A120C26
:100E200001F8012F019A120E4A70891C00910FE0FF
:100E30000A99002918BF348A0AD000210E2003F035
:100E40004BF9022804D1641E02D339780029F4D06A
:100E5000059A0B9911700599487005990098411AE7
:100E60000498281A8CE600200491891C06950C90A1
:100E700000913B7003900A9015F8011BF176B27E49
:100E8000914280F0628115F8018BB8F1000F00F0FB
:100E90005C8100BF15F8019B19F0010F14BF0B24F2
:100EA0000A2419F0020F74D00A9981B30398B6F896
:100EB00010A0A04208BF19F0100F0FD003980A2805
:100EC00003D00A20039000F0E9FD02A90E2001F0F2
:100ED00021FB022812D000210A9105E002A9484610
:100EE00001F018FB022802D0012841D110E0BAF12C
:100EF000010A3DD339780029F0D0D9E0BAF1010ACE
:100F000002D339780029E0D000210A91D0E010E026
:100F1000009A02991170029A0099120A01F8012FA1
:100F2000029A120C01F8012F029A120E4A70891CC3
:100F3000009119F0100F48D0E87855F804AB03E0A1
:100F4000080100202000002060F31F6A0398B6F813
:100F500012B0A04203D02046039400F09FFD348AD3
:100F60000021484601F0D6FA022802D0012806D016
:100F70009EE0641E44D339780029F1D098E0348A89
:100F800002A9484601F0C6FA022803D0012807D07A
:100F900011E036E0641E0ED339780029F0D00AE063
:100FA000726902991140514505D0BBF1010B02D382
:100FB00039780029E3D07169029A1140514518BF70
:100FC00040F01000012873D16DE00A99A1BB03988D
:100FD000A04203D02046039400F060FD348A002133
:100FE000484601F097FA022805D0012804BF0121E4
:100FF0000A9158D05CE0641E5AD339780029EED0AB
:1010000056E00A9860B303980A2803D00A20039098
:1010100000F044FDB6F810A002A90E2001F07AFA03
:10102000022802D0012808D042E0BAF1010A3FD3D9
:1010300039780029F0D03BE035E00099029808703B
:1010400002990098090A00F8011F0299090C00F89A
:10105000011F0299090E4170801C009000200A9027
:10106000E97855F8040B19F0200F61F31F60029026
:101070001CBF7061012016D10398A04203D0204606
:10108000039400F00BFD348A02A9484601F042FAAD
:10109000022802D0012806D00AE0641E08D339785D
:1010A0000029F1D004E00C99491C0C91397891B1D8
:1010B000B8F1000F0CD000BF15F8011B11F0020FA2
:1010C00002D011F0100F00D02D1DB8F10108F3D19E
:1010D000012805D039E0B8F101087FF4DBAEF7E76D
:1010E00003980A281CBF0A2000F0D8FC348A0A980A
:1010F00000B302A90E2001F00DFA022802D0012847
:1011000006D022E0641E20D339780029F1D01CE0FB
:10111000009A02991170029A0099120A01F8012F9F
:10112000029A120C01F8012F029A120E4A70891CC1
:1011300000910AE000210E2001F0ECF9022804D110
:10114000641E02D339780029F4D0049A0C991170E6
:101150000499487004990098411A06980FB0281A0B
:1011600041EA0040BDE8F08F70470000044910B527
:10117000086800F00F004860FFF7F6FF10BD0000A0
:101180000000024070470000044910B50868C0F331
:10119000031002014A60FFF7F5FF10BD0000024096
:1011A00070470000044910B50868C0F3032002022C
:1011B0004A60FFF7F5FF10BD000002401148816A48
:1011C00009684A680146002A496B49681CBF002922
:1011D0007047426B5161426B4FF0000182F8211061
:1011E00041688989426841F040019181016BC96879
:1011F000022908BF7047006B0168002908BF7047CB
:10120000012008477C8A0008044910B50868C0F32B
:10121000033002034A60FFF7D1FF10BD0000024017
:10122000014805F007BC00007C8A0008044910B59D
:101230000868C0F3034002044A60FFF7F1FF10BDE5
:1012400000000240014805F0F5BB0000B48A000828
:10125000044910B50868C0F3035002054A60FFF75F
:10126000F1FF10BD000002401148816A09684A6818
:101270000146002A496B49681CBF00297047426B30
:101280005161426B4FF0000182F821104168898959
:10129000426841F040019181016BC968022908BF91
:1012A0007047006B0168002908BF7047012008479C
:1012B000B48A0008044910B50868C0F30360020648
:1012C0004A60FFF7D1FF10BD00000240012818BF9F
:1012D000704730B43248426942F001024261002353
:1012E00030480F244FF0E0224FF0010C08294FD274
:1012F000DFE801F04E040D17222D3843836044606F
:101300004FF40060C2F88002C2F8000140E0C361FF
:10131000F02343604FF48050C2F88002C2F800010D
:1013200036E003634FF4706343604FF40050C2F83B
:101330008002C2F800012BE043644FF47043436025
:101340004FF48040C2F88002C2F8000120E08365BB
:101350004FF4702343604FF40040C2F88002C2F89B
:10136000000115E0C3664FF4700343604FF4803012
:10137000C2F88002C2F800010AE0C0F880304FF0E5
:10138000706343604FF40030C2F88002C2F800017D
:1013900005480CFA01F102781143017030BC704726
:1013A000001002400000024038000020012818BF51
:1013B000704730B4DFF8D8C09CF80000002804BFA4
:1013C00030BC7047002001244FF0E022314B082947
:1013D0004BD2DFE801F04A040E18222C36404FF4BD
:1013E0000065C2F88051BFF34F8FBFF36F8F9860D5
:1013F0003BE04FF48055C2F88051BFF34F8FBFF3ED
:101400006F8FD86131E04FF40055C2F88051BFF3BF
:101410004F8FBFF36F8F186327E04FF48045C2F8FA
:101420008051BFF34F8FBFF36F8F58641DE04FF4AF
:101430000045C2F88051BFF34F8FBFF36F8F98659F
:1014400013E04FF48035C2F88051BFF34F8FBFF3E4
:101450006F8FD86609E04FF40035C2F88051BFF3B2
:101460004F8FBFF36F8FC3F8800004FA01F09CF830
:10147000001031EA00008CF800001CBF30BC70473F
:101480000548416921F00101416130BC704700000D
:10149000380000200000024000100240084942F2DB
:1014A00028320968B1FBF2F14843B0F1004F03D292
:1014B000401E0028FCDC7047401EFDD17047000034
:1014C0000C00002030B505464FF4302000F04AF8FB
:1014D000042818BF30BD0A4C206940F0020020618A
:1014E0006561206940F0400020614FF4302000F039
:1014F00039F8216941F6FD721140216130BD0000CB
:10150000002002400248016941F0800101617047FA
:101510000020024070B506460D464FF4005000F022
:1015200021F8042818BF70BD074C206940F0010065
:10153000206135804FF4005000F014F8216941F625
:10154000FE721140216170BD002002400348024933
:101550004160034941607047230167450020024014
:10156000AB89EFCD174902460420CB6813F0010F79
:1015700025D1CB6813F0040F18BF02201AD1C96817
:1015800011F0100F18BF032014E0CB68042013F0F3
:10159000010F18BF01200AD1CB6813F0040F18BF48
:1015A000022004D1CB6813F0100F18BF0320521E85
:1015B000012804D0002A18BF704705207047002A70
:1015C000E3D1FAE70020024081B0002804BF01B057
:1015D000704714498A6912F0010F03D18A6942F0F9
:1015E00001028A6110F4805FC0F3421200F01F0311
:1015F0000D49C0F3032002FA03F200FA03F007D00A
:10160000CB6923EA020210430090C86101B0704721
:101610004B6823EA0202104320F0E060009048602B
:1016200001B0704700100240000001402DE9F001B8
:10163000CB78002203F00F0C13F0100F1CBF8B7837
:1016400043EA0C0C0B784FF00F0613F0FF0F4FF02E
:10165000010518BF046819D00F8805FA02F31F406E
:101660009F420FD1970006FA07F824EA08040CFA03
:1016700007F73C43CF78282F08BF436102D0482F9B
:1016800008BF0361521C082AE6D304600A88FF2AB7
:1016900087BF44680022BDE8F001704702F10803EB
:1016A0000F8805FA03F31F409F420FD1970006FAF7
:1016B00007F824EA08040CFA07F73C43CF78282FF0
:1016C00008BF4361CF78482F08BF0361521C082A26
:1016D000E4D34460BDE8F001704700000F2984BFE7
:1016E00000207047F0B504460D463448A4F180410F
:1016F0001F461646B1F5843104BF8069C0F38000EF
:1017000035D0A4F18042B2F5863204BF8069C0F3BF
:10171000C0002CD0A4F18042B2F5883204BF8069A9
:10172000C0F3001023D0A4F18042B2F58A3204BF86
:101730008069C0F340101AD0A4F18042B2F58C3217
:1017400004BF8069C0F3801011D0A4F18042B2F5CB
:101750008E3204BF8069C0F3C01008D0A4F180426B
:10176000B2F5903204BF8069C0F3002000D118B9EF
:101770000121204600F024F86FB90120A840022E74
:1017800004BFE16821EA000004D0032E03D1E16820
:1017900002260843E060082D24BF241D083D21686F
:1017A000A8000F2282409143216047EA860101FA96
:1017B00000F02168084320600120F0BD00100240C5
:1017C0002DE9F001344A354BDFF8D4C0354C364DA5
:1017D000364E374FDFF8DC8000292FD0404504BF5C
:1017E000906940F0040025D0984204BF906940F011
:1017F00008001FD0604504BF906940F0100019D068
:10180000A04204BF906940F0200013D0A84204BF5A
:10181000906940F040000DD0B04204BF906940F0A4
:10182000800007D0B84207BF906940F48070BDE8DF
:10183000F00170479061BDE8F0017047404504BF7A
:10184000906920F00400F5D0984204BF906920F020
:101850000800EFD0604504BF906920F01000E9D087
:10186000A04204BF906920F02000E3D0A84204BF4A
:10187000906920F04000DDD0B04204BF906920F0B4
:101880008000D7D0B84204BF906920F48070D1D0D6
:10189000BDE8F0017047000000100240000C01405C
:1018A000001001400014014000180140001C0140DC
:1018B00000200140000801402DE9F0410278FF2797
:1018C000A2F1D003072B7AD801F8012B0C4610F8AF
:1018D000011BD03908296ED2DFE801F00412151877
:1018E0001C2A4A5E4048006804F8010B010A04F80B
:1018F000011B010C04F8011B000E04F8010B5BE056
:10190000FFF724FE58E0FFF7FDFD55E00068FFF704
:10191000D9FD51E082880168501E80B24CD300BFCF
:1019200011F8012BFF2A1BD1401E80B2F8D243E0F0
:101930008188D0F8008038293ED8851D481E86B29F
:101940003AD300BF15F8011B2EB115F8010B41EA7F
:101950000021701E86B24046FFF7DCFD042801D04E
:10196000FF2729E0711E8EB208F10208EAD223E0B7
:10197000828801683E2A1FD8002004F8010B501EFF
:1019800080B219D330B111F8012B401E04F8012B9D
:1019900080B2F7E70F780FE0BFF34F8F134801686D
:1019A000134A01F4E06111430160BFF34F8F00BFA0
:1019B000FDE704E0FFE7641E2770BDE8F0810D48F5
:1019C0000268002A02BFFF200870BDE8F0810A49C2
:1019D0000A48C368806801EB8311094B5268BDE86F
:1019E000F04103EB80101047002004E00CED00E014
:1019F0000400FA0504000020FE2200204C00002014
:101A0000FE12002072B61D48006880F308881C4E44
:101A1000B06940F00400B0611A4D74152C601B4F82
:101A200019493846FFF702FEB06940F00400B06182
:101A30002C6017493846FFF7F9FD2E1F3460002748
:101A40002C606420FFF72AFD34602C606420FFF7CF
:101A500025FD34604FF47A70FFF720FD7F1C052FC1
:101A6000EEDBBFF34F8F0B4801680B4A01F4E061D6
:101A700011430160BFF34F8F00BFFDE70000000876
:101A800000100240140801401C8A000800080140B0
:101A9000208A00080CED00E00400FA052DE9F00FA3
:101AA000754B5978002900F0E28074494A6842F089
:101AB00080624A60724C4FF40059C4F800904A6842
:101AC00042F080624A60251D4FF480422A60D1F8BE
:101AD00004C04CF0806CC1F804C02260D1F804C08E
:101AE0004CF0806CC1F804C02A60D1F804C04CF0FE
:101AF000806CC1F804C02260D1F804C04CF0806C46
:101B0000C1F804C0C5F80090D1F804C04CF0806C56
:101B1000C1F804C02A60D1F804C04CF0806CC1F850
:101B200004C02260D1F804C04CF0806CC1F804C03D
:101B30002A60D1F804C04CF0806CC1F804C0226067
:101B4000504F20263E6093F81B8003EB480ABAF8FA
:101B500024307BB1D1F804C04CF0806CC1F804C0D3
:101B60002A60D1F804C04CF0806CC1F804C0226037
:101B70005B1EEFD1444B18F80330DFF810815B1E79
:101B800017D000BF10F0010F14BF3E60C8F800600E
:101B9000D1F804C04CF0806CC1F804C02A60D1F8C0
:101BA00004C04CF0806CC1F804C0226040085B1E89
:101BB000E8D1BAF83430002B4CD010F0010F0CBF34
:101BC000C8F800603E60486840F0806048602A6065
:101BD000486840F08060486022603E60581E0BD02C
:101BE0004B6843F080634B602A604B6843F080632E
:101BF0004B602260401EF3D1486840F0806048602E
:101C0000C4F80090486840F0806048602A604868E6
:101C100040F0806048602260486840F08060486022
:101C20002A60486840F0806048602260486840F060
:101C300080604860C5F80090486840F08060486067
:101C40002A60486840F08060486022603E60BDE8DD
:101C5000F00F70474B6843F080634B60C4F800900E
:101C600010F0010F14BF3E60C8F80060CAE7BDE87D
:101C7000F00F00F00DB80000080100200000014046
:101C800010080140100C014024010020140C0140F8
:101C90002DE9F00FDFF8E8C3DCF8041041F08061B3
:101CA000CCF80410F74D4FF4005AC5F800A0DCF84A
:101CB000041041F08061CCF804102E1D4FF48044D4
:101CC0003460F14B59680A46B1F1004F80F0E4816D
:101CD000521E002AFCDC00BFDCF8042042F08062C7
:101CE000CCF804202C600A46B1F1004F38BF4A1EE0
:101CF00080F0D581002AC8BF521EFBDCDCF804202E
:101D000042F08062CCF8042034600A46B1F1004F02
:101D100038BF4A1E80F0C681002AC8BF521EFBDCB5
:101D2000DCF8042042F08062CCF804202C600A46E3
:101D3000B1F1004F38BF4A1E80F0B881002AC8BFF9
:101D4000521EFBDCDCF8042042F08062CCF8042058
:101D5000C6F800A0DCF8042042F08062CCF8042031
:101D600034600A46B1F1004F38BF4A1E80F0A181AD
:101D7000002AC8BF521EFBDCDCF8042042F080625F
:101D8000CCF804202C600A46B1F1004F38BF4A1E3F
:101D900080F09281002AC8BF521EFBDCDCF80420D0
:101DA00042F08062CCF8042034600A46B1F1004F62
:101DB00038BF4A1E80F08381002AC8BF521EFBDC58
:101DC000DCF8042042F08062CCF804202C600A4643
:101DD000B1F1004F38BF4A1E80F07481002AC8BF9D
:101DE000521EFBDCDFF8A4922027C9F8007093F89C
:101DF0001B8003EB480BBBF82430C3B1DCF8042094
:101E000042F08062CCF804203460B1F1004F80F0E1
:101E10005D8100BFDCF8042042F08062CCF8042031
:101E20002C60B1F1004F80F057815B1EE6D1984ADB
:101E300018F80220DFF85C82531E1FD010F0010F4B
:101E400014BFC9F80070C8F80070DCF8042042F034
:101E50008062CCF804203460B1F1004F80F0428100
:101E6000DCF8042042F08062CCF804202C60B1F150
:101E7000004F80F03D8140085B1EDFD1BBF834206D
:101E8000002A74D010F0010F0CBFC8F80070C9F818
:101E90000070DCF8040040F08060CCF8040034608E
:101EA0000846B1F1004F38BF481E80F02881002855
:101EB000C8BF401EFBDC00BFDCF8040040F08060BF
:101EC000CCF804002C600846B1F1004F38BF481E22
:101ED00080F018810028C8BF401EFBDCC9F80070E4
:101EE000521E18D0DCF8040040F08060CCF80400EA
:101EF00034600846B1F1004F7DD200BFDCF8040029
:101F000040F08060CCF804002C600846B1F1004F2E
:101F100072D2521EE6D1DCF8040040F08060CCF8AA
:101F20000400C5F800A0DCF8040040F08060CCF8A4
:101F3000040034600846B1F1004F38BF481E7DD21E
:101F40000028C8BF401EFBDCDCF8040040F08060C5
:101F5000CCF804002C600846B1F1004F38BF481E91
:101F60006DD20028C8BF401EFBDC32E0FFE7DCF882
:101F7000042042F08062CCF80420C5F800A010F0E4
:101F8000010F14BFC9F80070C8F80070DCF8040035
:101F900040F08060CCF8040034600846B1F1004F96
:101FA00038BF481E6BD20028C8BF401EFBDC00BFF4
:101FB000DCF8040040F08060CCF804002C60084697
:101FC000B1F1004F38BF481E6FD20028C8BF401E75
:101FD000FBDCDCF8040040F08060CCF804003460E6
:101FE0000846B1F1004F38BF481E6ED20028C8BF66
:101FF000401EFBDC01E088E08AE0DCF8040040F0F1
:102000008060CCF804002C600846B1F1004F38BF66
:10201000481E73D20028C8BF401EFBDCDCF8040059
:1020200040F08060CCF80400C6F800A0DCF80400A2
:1020300040F08060CCF80400346001E06BE06DE0BB
:102040000846B1F1004F38BF481E77D20028C8BFFC
:10205000401EFBDCDCF8040040F08060CCF804009B
:102060002C60B1F1004F38BF481E6AD20028C8BFAB
:10207000401EFBDCC9F80070BDE8F00F704750E06F
:10208000000001401008014008010020100C014030
:1020900024010020140C0140521EFDD11CE6521EEA
:1020A000FDD12BE6521EFDD13AE63DE0521EFDD198
:1020B00048E6521EFDD15FE6521EFDD16EE6521E6D
:1020C000FDD17DE6521EFDD18CE631E04A1E3FF483
:1020D000A1AE521EFDD19DE64A1E3FF4A6AE521E91
:1020E000FDD1A2E64A1E3FF4BBAE521EFDD1B7E6BB
:1020F0004A1E3FF4C0AE521EFDD1BCE61BE0401E9E
:10210000FDD1D9E6401EFDD1E8E6401EFDD1F5E641
:10211000401EFDD1FDE6401EFDD115E7401EFDD15C
:1021200057E7401EFDD143E7401EFDD151E705E0D2
:10213000401EFDD15EE7401EFDD16FE7401EFDD180
:1021400088E7491EFDD195E72DE9F003AF4A5068B5
:1021500040F080605060AE4D56142E60506840F0E4
:10216000806050602C1D4FF4804CC4F800C0A94B17
:1021700059680846B1F1004F80F00881401E0028E0
:10218000FCDC506840F080605060C5F800C0084634
:10219000B1F1004F38BF481E80F0FB800028C8BF57
:1021A000401EFBDC506840F0806050602660506844
:1021B00040F080605060C4F800C00846B1F1004FA4
:1021C00038BF481E80F0E8800028C8BF401EFBDCF6
:1021D000506840F080605060C5F800C00846B1F11A
:1021E000004F38BF481E80F0DB800028C8BF401E6B
:1021F000FBDC506840F080605060C4F800C00846C6
:10220000B1F1004F38BF481E7ED20028C8BF401E23
:10221000FBDC506840F080605060C5F800C00846A4
:10222000B1F1004F38BF481E6FD20028C8BF401E12
:10223000FBDCDB7E9BB1506840F080605060C4F8EE
:1022400000C0B1F1004F7DD2506840F08060506016
:10225000C5F800C0B1F1004F75D25B1EEBD100276D
:10226000DFF8B4811F23506840F080605060C4F8EC
:1022700000C0B1F1004F67D2D8F80000C0F3C01918
:10228000506840F080605060C5F800C0B1F1004F68
:102290007BD200BF47EAC97047085B1EE3D1506894
:1022A00040F0806050602E60506840F08060506068
:1022B000C4F800C00846B1F1004F38BF481E6ED2C6
:1022C0000028C8BF401EFBDCD8F80000C0F3C013D4
:1022D000506840F080605060C5F800C00846B1F119
:1022E000004F38BF481E70D20028C8BF401EFBDC1C
:1022F00047EAC370536843F080635360C4F800C07A
:102300000B46B1F1004F01E04DE04FE038BF4B1EEE
:102310006ED2002BC8BF5B1EFBDC536843F08063AA
:102320005360C5F800C00B46B1F1004F38BF4B1EDB
:1023300061D2002BC8BF5B1EFBDC536843F0806397
:10234000536002E035E03AE040E02660536843F035
:1023500080635360C4F800C00B46B1F1004F38BF32
:102360004B1E4BD2002BC8BF5B1EFBDC536843F0F7
:1023700080635360C5F800C0B1F1004F41D2491EDF
:102380000029FCDCBDE8F003704725E0401EFDD1CC
:10239000F7E6401EFDD105E7401EFDD118E721E01C
:1023A000401EFDD125E7401EFDD132E7401EFDD184
:1023B0003FE7481E3FF448AF401EFDD144E7481EAA
:1023C0003FF44BAF401EFDD147E70EE0481E3FF4FF
:1023D00053AF401EFDD14FE7481E3FF45BAF401E98
:1023E000FDD157E7401EFDD16EE7401EFDD17FE7CE
:1023F0005B1EFDD191E75B1EFDD19EE75B1EFDD10B
:10240000B4E7491EFDD1BDE8F0037047000001406C
:102410001008014008010020080C01402DE9F74F89
:10242000009810F03F0208BF402210F0400F344DDA
:10243000324F4FF400506B68A7F1040843F08063FB
:102440006B6014BFC8F800003860002A04BF03B0F6
:10245000BDE8F08F4FF02009DFF8A8E04FF4804688
:10246000294811F8013B00244FF0080C40682BE08C
:1024700013F0010F14BFDFF894A0DFF894A0CAF89E
:102480000090D5F804A04AF0806AC5F804A03E6028
:102490008246B0F1004F29D2DEF800A0D5F804B092
:1024A000CAF3C01A4BF0806BC5F804B0C8F80060DE
:1024B0008346B0F1004F1DD264085B08521E44EA07
:1024C000CA14BCF1010C01D0002AD1D1009B24FA1E
:1024D0000CF013F0800F04D0029B18700298401C7F
:1024E0000290002ABCD103B0BDE8F08FBAF1010A16
:1024F000FCD1D1E7BBF1010BFCD1DDE714080140B1
:1025000000000140080C014008010020100C0140AF
:10251000140C0140034A52780AB100F005B800F0EB
:102520000BBA0000080100202DE9F84FFA4A536861
:1025300043F080635360DFF8E4C34FF40058CCF8F5
:102540000080536843F0806353600CF1040B4FF438
:102550008043CBF80030546844F080645460CCF879
:102560000030546844F080645460CBF800805468B4
:1025700044F080645460CBF80030546844F08064C8
:102580005460CCF80030546844F080645460CBF858
:102590000030546844F080645460CCF80030E04C63
:1025A000E47E6CB1556845F080655560CBF800302D
:1025B000556845F080655560CCF80030641EF1D157
:1025C0004408DFF8609314F0010F4FF020051ABFA4
:1025D000D54C2560C9F80050546844F080645460BC
:1025E000CBF80030D14F3C685668C4F3C01446F0B5
:1025F00080665660CCF800306600840814F0010F45
:102600001ABFC94C2560C9F80050546844F0806472
:102610005460CBF800303C68D2F804A0C4F3C01476
:102620004AF0806AC2F804A0CCF800302643C408FF
:1026300014F0010F1ABFBC4C2560C9F80050B64C0D
:10264000626842F080626260B94B4FF480421A6067
:102650003B68D4F804A0C3F3C0134AF0806AC4F8FE
:1026600004A0DFF8B8C2CCF8002046EA830EBEF121
:10267000010F1AD02346596841F0806159606246C3
:10268000C2F80080596841F08061596002F1040C81
:102690004FF48041CCF80010D3F804C04CF0806CAB
:1026A000C3F804C0116000F0E5B89D4A10F0020FB5
:1026B000937ED27EA3EB020200927DD0974E002340
:1026C000DFF854C21F224FF4804406F1040900BF12
:1026D000DCF804A04AF0806ACCF804A0C9F80040F5
:1026E000D7F800A04FEADA1BDCF804A04AF0806AB1
:1026F000CCF804A0346043EACB735B08521EE7D1E8
:10270000009A521E3DD0DCF804A04AF0806ACCF852
:1027100004A0C9F800403F68C7F3C01ADCF8047091
:1027200047F08067CCF804703460521E11D000BFAF
:10273000DCF8047047F08067CCF80470C9F80040FA
:10274000DCF8047047F08067CCF804703460521EE7
:10275000EED1DCF8042042F08062CCF80420C6F808
:102760000080DCF8042042F08062CCF80420C9F834
:102770000040DCF8042042F08062CCF80420346091
:1027800019E0DCF8042042F08062CCF80420C6F89E
:102790000080DCF8042042F08062CCF80420C9F804
:1027A00000403A68C2F3C01ADCF8042042F08062AC
:1027B000CCF80420346000E005E043EACA72002946
:1027C00018BF0A6056E00A68544C1F23DFF858A16E
:1027D00051494FF4804C261D12F0010F14BFCAF866
:1027E0000050C9F800504F6847F080674F60C6F846
:1027F00000C04F6847F080674F60C4F800C05208BF
:102800005B1EE9D1009B5B1E77D012F0010F0CBF5D
:10281000C9F80050CAF800504A6842F080624A6025
:10282000C6F800C04A6842F080624A60C4F800C03E
:102830005A1E0DD04B6843F080634B60C6F800C051
:102840004B6843F080634B60C4F800C0521EF1D166
:102850004A6842F080624A60C4F800804A6842F0E8
:1028600080624A60C6F800C04A6842F080624A60EE
:10287000C4F800C0284A516841F0806151602C4979
:102880004FF480430B60D2F804C04CF0806CC2F867
:1028900004C0A1F1040CCCF80030546844F080640A
:1028A0005460C1F80080546844F0806454600B6048
:1028B000546844F080645460CCF800301A4C2560B1
:1028C00010F0800F03D01B484068154CA0601448DE
:1028D000007B00280DDD546844F0806454600B6078
:1028E000546844F080645460CCF80030401E0028E6
:1028F000F1DC7046BDE8F88FFFE74B6843F080637A
:102900004B60C4F8008012F0010F14BFCAF80050E9
:10291000C9F80050A2E70000000001401008014083
:1029200008010020140C0140100C0140080C01406B
:1029300014080140001000E02DE9F04FDFF804C456
:1029400082B0DCF8042042F08062CCF80420FE4F14
:102950004FF4005EC7F800E0DCF8042042F080622B
:10296000CCF804203C1D4FF480452560DFF8DC9353
:10297000D9F804201346B2F1004F80F09F835B1E0C
:10298000002BFCDCDCF8043043F08063CCF804302E
:102990003D601346B2F1004F38BF531E80F0918363
:1029A000002BC8BF5B1EFBDCDCF8043043F0806307
:1029B000CCF80430C4F800E0DCF8043043F0806365
:1029C000CCF8043025601346B2F1004F38BF531ED7
:1029D00080F07A83002BC8BF5B1EFBDCDCF8043080
:1029E00043F08063CCF804303D601346B2F1004FF1
:1029F00038BF531E80F06C83002BC8BF5B1EFBDC0E
:102A0000DCF8043043F08063CCF8043025601346D2
:102A1000B2F1004F38BF531E80F05D83002BC8BF5A
:102A20005B1EFBDCDCF8043043F08063CCF8043040
:102A30003D601346B2F1004F38BF531E80F04E8305
:102A4000002BC8BF5B1EFBDC99F81B60CEB100BF3A
:102A5000DCF8043043F08063CCF804302560B2F138
:102A6000004F80F03E8300BFDCF8043043F0806309
:102A7000CCF804303D60B2F1004F80F03883761E10
:102A8000E6D14308DFF8C8A213F0010F4FF020068B
:102A90001ABFB04B1E60CAF80060DCF8043043F087
:102AA0008063CCF8043025601346B2F1004F38BF84
:102AB000531E80F02283002BC8BF5B1EFBDCDFF8B7
:102AC0009882D8F80030DCF804B0C3F3C0134BF0A0
:102AD000806BCCF804B03D609146B2F1004F38BF36
:102AE000A2F1010980F00C83B9F1000FC8BFA9F170
:102AF0000109F9DC5B004FEA900919F0010F1ABFD8
:102B0000DFF85092C9F80060CAF80060DCF8049061
:102B100049F08069CCF8049025609146B2F1004FED
:102B200038BFA2F1010980F0EF8200BFB9F1000FB8
:102B3000C8BFA9F10109F9DCD8F80090DCF804B0AD
:102B4000C9F3C0194BF0806BCCF804B03D609346DC
:102B5000B2F1004F38BFA2F1010B80F0DB8200BF61
:102B6000BBF1000FC8BFABF1010BF9DC43EA09036D
:102B70004FEAD00919F0010F1ABFDFF8D891C9F850
:102B80000060CAF80060DCF8049049F08069CCF875
:102B90000490724C25601446B2F1004F38BF541EA9
:102BA00080F0BC82002CC8BF641EFBDCD8F800405B
:102BB000DFF890C1C4F3C014DCF8049049F08069D8
:102BC000CCF804903D609446B2F1004F38BFA2F1BA
:102BD000010C80F0A78200BFBCF1000FC8BFACF1B0
:102BE000010CF9DC43EA84030193012B28D0554BF7
:102BF000596841F080615960C7F800E0596841F0B8
:102C00008061596055490D601146B2F1004F38BFDF
:102C1000511E80F08B820029C8BF491EFBDC596819
:102C200041F0806159603D60B2F1004F38BF511EE4
:102C300080F07F820029C8BF491EFBDC00F0B2B9DA
:102C4000424B10F0020F93F81AC0DB7EACEB03038B
:102C5000009376D0DFF804913A4C4FF0000C1F231C
:102C6000D4F804A04AF0806AC4F804A0C9F800505F
:102C7000B2F1004F80F06282D8F800A0CAF3C01B06
:102C8000D4F804A04AF0806AC4F804A03D60B2F110
:102C9000004F80F05B8200BF4CEACB7C4FEA5C0CBB
:102CA0005B1EDDD1009B5B1E7DD0D4F804A04AF0F2
:102CB000806AC4F804A0C9F800509246B2F1004FEF
:102CC00038BFA2F1010A80F0498200BFBAF1000FBB
:102CD000C8BFAAF1010AF9DCD8F80080C8F3C01A0D
:102CE000D4F8048048F08068C4F80480AB463D60A6
:102CF0009046B2F1004F38BFA2F1010880F0328255
:102D0000B8F1000FC8BFA8F10108F9DCB3F1010860
:102D100018BF5D4627D0636843F080636360C9F8DD
:102D200000501346B2F1004F80F02082636843F0F8
:102D3000806363603D601346B2F1004F80F01982FA
:102D40000EE06BE000000140100801400801002087
:102D5000140C0140100C0140080C01401408014003
:102D6000B8F10108D7D1636843F080636360C7F8A6
:102D700000E0636843F080636360C9F800B0134605
:102D8000B2F1004F38BF531E80F0F881002BC8BF4E
:102D90005B1EFBDC636843F080636360C7F800B0D0
:102DA000B2F1004F00E005E080F0EB81521E002AF6
:102DB000FCDC2DE0636843F080636360C7F800E0EB
:102DC000636843F0806363602B46C9F80050914606
:102DD000B2F1004F38BFA2F1010980F0D58100BFE8
:102DE000B9F1000FC8BFA9F10109F9DCD8F80080DA
:102DF000C8F3C01AD4F8048048F08068C4F804808E
:102E00003B60B2F1004F80F0C381521E002AFCDC0F
:102E10004CEACA72002918BF0A60C3E0DFF8E093E9
:102E2000DFF8E083F84BD1F800C01F241CF0010F3D
:102E300014BFC9F80060CAF80060596841F08061A9
:102E40005960C8F80050B2F1004F80F0A481596871
:102E500041F0806159603D60B2F1004F80F0A18186
:102E60004FEA5C0C641EE1D10099491E6DD01CF044
:102E7000010F0CBFCAF80060C9F80060D3F804C0A5
:102E80004CF0806CC3F804C0C8F800501446B2F18E
:102E9000004F38BFA2F1010C80F08981BCF1000F16
:102EA000C8BFACF1010CF9DCD3F804C04CF0806C65
:102EB000C3F804C0AC463D601446B2F1004F38BFC1
:102EC000541E80F07781002CC8BF641EFBDC4C1EB2
:102ED00015D0596841F080615960C8F800C01146AA
:102EE000B2F1004F7DD2596841F080615960C7F856
:102EF00000C01146B2F1004F74D2641EE9D1596886
:102F000041F080615960C7F800E0596841F0806184
:102F10005960C8F800C01146B2F1004F38BF511EC9
:102F20007DD20029C8BF491EFBDC596841F0806191
:102F30005960C7F800C0B2F1004F38BF511E6FD2C0
:102F40000029C8BF491EFBDC2CE0596841F08061B4
:102F50005960C7F800E01CF0010F14BFC9F8006009
:102F6000CAF80060596841F080615960AC46C8F801
:102F700000501146B2F1004F38BF511E7DD20029DA
:102F8000C8BF491EFBDC596841F080615960C7F831
:102F900000C0B2F1004F38BF511E6FD20029C8BF28
:102FA000491EFBDC984A516841F080615160954BA5
:102FB0001D60964C61688C46B1F1004F7DD200BF18
:102FC000ACF1010CBCF1000FFADC00BFD2F804C078
:102FD0004CF0806CC2F804C03D608C46B1F1004FEB
:102FE00001E0EAE0ECE038BFA1F1010C6FD200BFD4
:102FF000BCF1000FC8BFACF1010CF9DCD2F804C081
:103000004CF0806CC2F804C0C3F800E0D2F804C0F1
:103010004CF0806CC2F804C01D608C4601E0D2E028
:10302000D4E0B1F1004F38BFA1F1010C70D200BF64
:10303000BCF1000FC8BFACF1010CF9DCD2F804C040
:103040004CF0806CC2F804C03D608C46B1F1004F7A
:1030500038BFA1F1010C6FD2BCF1000FC8BFACF1B9
:10306000010CF9DCDFF898C1CCF8006010F0800F9B
:1030700002D067484068A06001E0AAE0ACE094F8A4
:103080000CC0BCF1000F14DD506840F0806050604F
:103090001D60B1F1004F6FD2506840F08060506009
:1030A0003D60B1F1004F68D2ACF1010CBCF1000FF2
:1030B000EADC019802B0BDE8F08F90E05B1EFDD124
:1030C00060E45B1EFDD16FE45B1EFDD186E48AE007
:1030D0005B1EFDD194E45B1EFDD1A3E45B1EFDD11C
:1030E000B2E4531E3FF4C0AC5B1EFDD1BCE4531EE2
:1030F0003FF4C5AC5B1EFDD1C1E45B1EFDD1DEE437
:10310000B9F10109FCD1F5E4B9F10109FCD113E5EC
:103110006DE000BFBBF1010BFCD127E5641EFDD1C2
:1031200044E500BFBCF1010CFCD15BE5491EFDD1BB
:1031300075E5521EFDD135E75DE000BFB2F1010A31
:103140003FF49AADBAF1010AFCD195E5B2F1010A5A
:103150003FF4A2ADBAF1010AFCD19DE5BAF1010A32
:10316000FCD1B9E5B8F10108FCD1CFE55B1EFDD17A
:10317000DCE55B1EFDD1E3E54CE051E05B1EFDD1DB
:1031800008E6521EFDD143E6B9F10109FCD12DE656
:10319000521EFDD13CE6511E3FF459AE491EFDD1F1
:1031A00055E6511E3FF45CAE491EFDD158E6641E43
:1031B000FDD179E6641EFDD189E6491EFDD192E676
:1031C000491EFDD199E6491EFDD1AEE6521EFDD144
:1031D000E8E6491EFDD1D6E6521EFDD1E2E6BCF17D
:1031E000010CFCD1F2E6BCF1010CFCD106E7BCF10C
:1031F000010CFCD122E7BCF1010CFCD132E700004C
:10320000100C01401408014000000140080100209A
:10321000001000E0481E3FF43FAF401EFDD13BE7E9
:10322000481E3FF441AF401EFDD13DE72DE9F04F70
:10323000FE4B596841F080615960FD4C4FF4005AD3
:10324000C4F800A0596841F080615960251D4FF411
:10325000804CC5F800C0DFF8DCE3DEF804100A4655
:10326000B1F1004F80F0FB81521E002AFCDC5A684D
:1032700042F080625A60C4F800C00A46B1F1004FC3
:1032800038BF4A1E80F0EE81002AC8BF521EFBDC08
:103290005A6842F080625A60C5F800A05A6842F04D
:1032A00080625A60C5F800C00A46B1F1004F38BFCD
:1032B0004A1E80F0DA81002AC8BF521EFBDC5A6821
:1032C00042F080625A60C4F800C00A46B1F1004F73
:1032D00038BF4A1E80F0CC81002AC8BF521EFBDCDA
:1032E0005A6842F080625A60C5F800C00A46B1F1DF
:1032F000004F38BF4A1E80F0BE81002AC8BF521E50
:10330000FBDC5A6842F080625A60C4F800C00A468A
:10331000B1F1004F38BF4A1E80F0B181002AC8BF0A
:10332000521EFBDC9EF81B60B6F1000B15D05A68EC
:1033300042F080625A60C5F800C0B1F1004F80F0E1
:10334000A1815A6842F080625A60C4F800C0B1F1AD
:10335000004F80F09D81761EE9D1B74F4FF02008D5
:10336000C7F800805A6842F080625A60C5F800C011
:103370000A46B1F1004F38BF4A1E80F09081002A02
:10338000C8BF521EFBDC5A6842F080625A60C4F823
:1033900000C00A46B1F1004F38BF4A1E80F082815A
:1033A000002AC8BF521EFBDC5A6842F080625A6095
:1033B000C5F800C00A46B1F1004F38BF4A1E80F080
:1033C0007481002AC8BF521EFBDC5A6842F080623A
:1033D0005A60C4F800C00A46B1F1004F38BF4A1E17
:1033E00080F06681002AC8BF521EFBDC5A6842F09A
:1033F00080625A60C5F800C00A46B1F1004F38BF7C
:103400004A1E80F05881002AC8BF521EFBDC5A6851
:1034100042F080625A60C4F800C00A46B1F1004F21
:1034200038BF4A1E80F04A81002AC8BF521EFBDC0A
:10343000DFF808921F2600BF10F0010F14BFC9F873
:103440000080C7F800805A6842F080625A60C5F870
:1034500000C0B1F1004F80F035815A6842F08062BF
:103460005A60C4F800C0B1F1004F80F031814008CB
:10347000761EE1D19EF81A20A2EB0B02521E63D0F9
:1034800010F0010F0CBFC7F80080C9F80080586821
:1034900040F0806058606746C5F800C00846B1F14A
:1034A000004F38BF481E80F019810028C8BF401E59
:1034B000FBDC58681E4640F0806058602760084674
:1034C000B1F1004F38BF481E7ED20028C8BF401E51
:1034D000FBDC521E13D0706840F0806070602F607B
:1034E0000846B1F1004F70D2706840F080607060A3
:1034F00027600846B1F1004F68D2521EEBD17068C8
:1035000040F080607060C4F800A0706840F0806097
:1035100070602F600846B1F1004F38BF481E7DD261
:103520000028C8BF401EFBDC706840F080607060FF
:1035300027600846B1F1004F38BF481E6FD20028FF
:10354000C8BF401EFBDC2DE05E681A4646F0806670
:103550005E60C4F800A010F0010F14BFC9F800802D
:10356000C7F80080506840F080605060C5F800C027
:103570000846B1F1004F38BF481E6FD20028C8BFBF
:10358000401EFBDC506840F080605060C4F800C012
:103590000846B1F1004F38BF481E6FD20028C8BF9F
:1035A000401EFBDC586840F080605860C5F800C0E1
:1035B0000846B1F1004F38BF481E6FD20028C8BF7F
:1035C000401EFBDC586802E08BE08DE090E040F0AC
:1035D00080605860C4F800C00846B1F1004F38BFA1
:1035E000481E6ED20028C8BF401EFBDC586840F061
:1035F00080605860C5F800A0586840F0806058604E
:10360000C5F800C00846B1F1004F38BF481E6ED261
:103610000028C8BF401EFBDC586801E06BE06DE08D
:1036200040F080605860C4F800C009E0000001402C
:103630001008014008010020140C0140100C01404A
:10364000B1F1004F38BF481E6AD20028C8BF401EE3
:10365000FBDC00BFC9F80080BDE8F08F51E0521ECE
:10366000FDD104E6521EFDD112E6521EFDD126E622
:10367000521EFDD134E6521EFDD142E644E0521EF8
:10368000FDD14FE64A1E3FF45CAE521EFDD158E616
:103690004A1E3FF460AE521EFDD15CE637E0521E7A
:1036A000FDD170E6521EFDD17EE6521EFDD18CE6A4
:1036B000521EFDD19AE6521EFDD1A8E6521EFDD142
:1036C000B6E627E04A1E3FF4C8AE521EFDD1C4E65E
:1036D0004A1E3FF4CCAE521EFDD1C8E6401EFDD1BD
:1036E000E7E6401EFDD1F4E6401EFDD1FCE614E005
:1036F000401EFDD101E7401EFDD115E7401EFDD162
:1037000050E7401EFDD13DE7401EFDD14AE7401E77
:10371000FDD157E7401EFDD168E7401EFDD17BE794
:10372000491EFDD196E7000007494FF4007008607C
:103730000648417821F0010141704FF0E020016915
:1037400041F00101016170471008014000000020B4
:103750000E4A4FF4007111600D4B10F0010F4FF045
:10376000E02093F801C04CF0010C83F801C005D0B3
:10377000036923F00103036111607047026942F09D
:103780000102026103480160704700001408014013
:103790000000002010080140124910B54FF4C0404D
:1037A0000860114920200860114C10492046FDF79F
:1037B0003DFF10492046FDF739FF0F48416841F0B1
:1037C000806141600D490E48FDF730FF002005F093
:1037D000DFF86420FDF762FEBDE81040012005F02F
:1037E000D7B8000010080140100C0140348A0008CE
:1037F000000C01403C8A000800000140388A0008A3
:10380000000801400C4810B5416841F080614160FA
:103810000A490B48FDF70AFF0B4C0A492046FDF701
:1038200005FF0A492046FDF701FF2046BDE810408C
:103830000749FDF7FBBE000000000140448A000874
:1038400000080140408A0008000C0140488A000836
:103850004C8A0008104910B54FF4C0400860104C65
:103860000E492046FDF7E2FE0E492046FDF7DEFE3A
:103870000D48416841F0806141600C490C48FDF7FA
:10388000D5FE002005F084F86420FDF707FEBDE8B2
:103890001040012005F07CB810080140288A00087B
:1038A000000C01402C8A000800000140308A00080A
:1038B000000801400548816941F004018161044923
:1038C0008015086003490448FDF7B0BE00100240AF
:1038D00014080140248A0008000801402DE9F00F77
:1038E000FE4C626842F080626260FD4D4FF4005809
:1038F000C5F80080626842F0806262602E1D4FF45D
:1039000080433360DFF8DCC3DCF804703A46B7F17B
:10391000004F80F0B8827F1E002FFCDC676847F004
:10392000806767602B601746B2F1004F38BF571EA3
:1039300080F0AC82002FC8BF7F1EFBDC676847F0B9
:103940008067676010F0010F14BFC5F80080C6F8EB
:103950000080676847F08067676033601746B2F1A0
:10396000004F38BF571E80F09482002FC8BF7F1EC3
:10397000FBDC676847F0806767602B601746B2F131
:10398000004F38BF571E80F08782002FC8BF7F1EB0
:10399000FBDC676881464FEA500A47F08067676042
:1039A0001AF0010F14BFC5F80080C6F800806768E0
:1039B00047F08067676033601746B2F1004F38BF49
:1039C000571E80F06C82002FC8BF7F1EFBDC67682B
:1039D00047F0806767602B601746B2F1004F38BF31
:1039E000571E80F05F82002FC8BF7F1EFBDC676818
:1039F00082444FEA900947F08067676019F0010F31
:103A000014BFC5F80080C6F80080676847F080677B
:103A1000676033601746B2F1004F38BF571E80F021
:103A20004482002FC8BF7F1EFBDC676847F08067B9
:103A300067602B601746B2F1004F38BF571E80F009
:103A40003782002FC8BF7F1EFBDC00BF0AEB0907CF
:103A50004FEAD009606840F08060606019F0010FA3
:103A600014BFC5F80080C6F80080606840F0806030
:103A7000606033601046B2F1004F38BF501E80F0D6
:103A80001A820028C8BF401EFBDC606840F08060DE
:103A900060602B601046B2F1004F38BF501E80F0BE
:103AA0000E820028C8BF401EFBDC00BF07EB0900E8
:103AB000676847F08067676010F0010F14BFC5F8B2
:103AC0000080C6F80080606840F08060606033600D
:103AD0001046B2F1004F38BF501E80F0F38100282D
:103AE000C8BF401EFBDC606840F0806060602B60F7
:103AF0001046B2F1004F38BF501E80F0E68100281A
:103B0000C8BF401EFBDC606840F080606060C6F8A3
:103B10000080606840F08060606033601046B2F101
:103B2000004F38BF501E80F0D4810028C8BF401E0F
:103B3000FBDC606840F0806060602B601046B2F192
:103B4000004F38BF501E80F0C7810028C8BF401EFC
:103B5000FBDC606840F080606060C5F800806068F1
:103B600040F08060606033601046B2F1004F38BFB3
:103B7000501E80F0B4810028C8BF401EFBDC606886
:103B800040F0806060602B601046B2F1004F38BF9B
:103B9000501E80F0A7810028C8BF401EFBDC606873
:103BA00040F080606060DFF84091D9F8000020F4B8
:103BB000700040F40000C9F80000C5F800809CF8CF
:103BC0001870B7F1000C14D0606840F0806060603D
:103BD0003360B2F1004F80F08881606840F080600F
:103BE00060602B60B2F1004F80F08581BCF1010C68
:103BF000EAD1606840F08060606033601046B2F1E6
:103C0000004F38BF501E80F07C810028C8BF401E86
:103C1000FBDC606840F080606060DFF8D0C0DCF8FA
:103C2000000010F4005018BF0120D4F804A04AF09E
:103C3000806AC4F804A02B609246B2F1004F38BFEE
:103C4000A2F1010A80F06081BAF1000FC8BFAAF1A9
:103C5000010AF9DCD4F804A04AF0806AC4F804A090
:103C600033609246B2F1004F38BFA2F1010A80F0F2
:103C7000518100BFBAF1000FC8BFAAF1010AF9DCF7
:103C8000D4F804A04AF0806AC4F804A0DCF800A0CC
:103C90001AF4005A18BF4FF0010AD4F804B04BF0E0
:103CA000806BC4F804B02B609346B2F1004F38BF6C
:103CB000A2F1010B7DD200BFBBF1000FC8BFABF179
:103CC000010BF9DC40EA4A00D4F804A04AF0806A0B
:103CD000C4F804A0336092460AE0000000000140EE
:103CE00010080140080100200408014008080140B4
:103CF000B2F1004F38BFA2F1010A7CD2BAF1000F35
:103D0000C8BFAAF1010AF9DCD4F804A04AF0806A1D
:103D1000C4F804A0DCF800C01CF4005C18BF4FF02D
:103D2000010CD4F804A04AF0806AC4F804A02B6007
:103D30009246B2F1004F38BFA2F1010A7ED200BF15
:103D4000BAF1000FC8BFAAF1010AF9DC40EA8C0001
:103D5000B7B100BFD4F804C04CF0806CC4F804C004
:103D60003360B2F1004F6AD2D4F804C04CF0806CDA
:103D7000C4F804C02B60B2F1004F7DD27F1EE9D1A0
:103D8000D4F804C04CF0806CC4F804C0D9F800C06A
:103D90002CF4700C4CF4401CC9F800C0C6F800802C
:103DA00000274FF0200A00BFD4F804C04CF0806C0C
:103DB00000E0B3E0C4F804C011F0010F14BFC5F86F
:103DC0000080C6F80080D4F804C04CF0806CC4F8C1
:103DD00004C03360B2F1004F70D200BFD4F804C009
:103DE0004CF0806CC4F804C02B60B2F1004F6FD26D
:103DF0000F44490800E095E0BAF1010AD4D16168A6
:103E000041F08061616017F0010F14BFC5F80080B8
:103E1000C6F80080616841F08061616033601146DE
:103E2000B2F1004F38BF511E72D20029C8BF491EDF
:103E3000FBDC616841F08061616001E077E07AE07D
:103E40002B60B2F1004F38BF511E6FD20029C8BF9E
:103E5000491EFBDC616841F080616160D9F80010A7
:103E600021F4700141F44011C9F80010C6F8008037
:103E7000616841F0806100E066E06160C5F8008043
:103E8000BDE8F00F70477F1EFDD147E57F1EFDD1D5
:103E900054E57F1EFDD16CE57F1EFDD179E57F1EC7
:103EA000FDD194E57F1EFDD1A1E57F1EFDD1BCE5CE
:103EB0007F1EFDD1CAE5401EFDD1E6E54CE0401E67
:103EC000FDD1F3E5401EFDD10DE6401EFDD11AE601
:103ED0004AE0401EFDD12CE6401EFDD139E6401ED1
:103EE000FDD14CE6401EFDD159E6501E3FF475AEA3
:103EF000401EFDD171E6501E3FF478AE401EFDD14C
:103F000074E6401EFDD184E6BAF1010AFCD1A1E6B7
:103F100032E000BFBAF1010AFCD1B1E6BBF1010BFE
:103F2000FCD1CFE6BAF1010AFCD1EDE627E0BAF107
:103F3000010AFCD10AE7B2F1010C3FF415AF00BF52
:103F4000BCF1010CFCD10FE7B2F1010C3FF416AF4C
:103F5000BCF1010CFCD111E7B2F1010C3FF43EAF12
:103F6000BCF1010CFCD139E7B2F1010C3FF440AFD8
:103F7000BCF1010CFCD13BE7491EFDD159E7521EB3
:103F8000FDD167E72DE9F00F10F03F0308BF402394
:103F900010F0800F4C4FDFF834C1DFF834B14FF42C
:103FA0008044A7F1040841D0002B12BFDFF8249110
:103FB000BDE8F00F704700260821DBF804002AE076
:103FC000DCF8045045F08065CCF804503C600546B0
:103FD000B0F1004F6AD200BFDCF8045045F08065B4
:103FE000CCF80450D9F8005015F4005518BF01253D
:103FF000DCF804A04AF0806ACCF804A0C8F80040BD
:104000008246B0F1004F54D2760846EAC516491EE2
:10401000A3F1010301D0002BD2D126FA01F002F85E
:10402000010B002BC7D1BDE8F00F7047002B19BF63
:104030004FF40059DBF80420BDE8F00F704700BFD3
:1040400011F8015B082627E0DCF8040040F08060EE
:10405000CCF8040015F0010F14BFC8F80090C7F8A1
:104060000090DCF8040040F08060CCF804003C6074
:104070001046B2F1004F20D2DCF8040040F080601E
:10408000CCF80400C8F800401046B2F1004F17D237
:104090006D085B1E761E04D0002BD5D1BDE8F00F55
:1040A0007047002BCCD1BDE8F00F70476D1EFDD1DD
:1040B00092E7BAF1010AFCD1A6E7401EFDD1DBE789
:1040C000401EFDD1E4E7000014080140000001405B
:1040D0000801002008080140034A52780AB100F0A4
:1040E00005B800F09FBA0000080100202DE9F04F4C
:1040F000FD4B0746586840F080605860FB4C4FF419
:10410000005EC4F800E0586840F08060586004F138
:10411000040C4FF48049CCF80090586840F080605F
:104120005860C4F80090586840F08060586017F0FC
:10413000010F14BFC4F800E0CCF800E0586840F06C
:1041400080605860CCF80090586840F080605860FB
:10415000C4F800905D68780845F080655D6010F0F7
:10416000010F14BFC4F800E0CCF800E05D6845F032
:1041700080655D60CCF800905D6845F080655D60AD
:10418000C4F800903A185D68B80845F080655D6035
:1041900010F0010F14BFC4F800E0CCF800E05D6837
:1041A00045F080655D60CCF800905D6845F0806505
:1041B0005D60C4F8009002445D68F80845F08065D1
:1041C0005D6010F0010F14BFC4F800E0CCF800E00F
:1041D0005D6845F080655D60CCF800905D6845F0F5
:1041E00080655D60C4F8009010445A6842F08062B7
:1041F0005A6010F0010F14BFC4F800E0CCF800E0E2
:10420000586840F080605860CCF80090586840F0E2
:1042100080605860C4F80090586840F08060586032
:10422000CCF800E0586840F080605860CCF800900E
:10423000586840F080605860C4F80090586840F0BA
:1042400080605860C4F800E0586840F080605860B2
:10425000CCF80090586840F080605860C4F8009036
:10426000586840F080605860A148026822F47002EB
:1042700042F400020260C4F800E09E48007E021E84
:104280000DD05D6845F080655D60CCF800905D689C
:1042900045F080655D60C4F80090401EF1D158681B
:1042A00040F080605860CCF80090586840F0806022
:1042B0005860DFF844B2DBF8000010F4005018BF7B
:1042C00001205D6845F080655D60C4F800905D6820
:1042D00045F080655D60CCF800905D6845F08065D4
:1042E0005D60DBF8005015F4005518BF01255E68CD
:1042F00046F080665E60C4F8009040EA45005D6864
:1043000045F080655D60CCF800905D6845F08065A3
:104310005D60DBF8005015F4005518BF01255E689C
:1043200046F080665E60C4F8009040EA850001288F
:1043300024D0022818BF042800F01C8112F12101AA
:104340000DD05A6842F080625A60CCF800905A68EA
:1043500042F080625A60C4F80090491EF1D1596859
:1043600041F08061596062490A6822F4700242F4A7
:1043700040120A60CCF800E000F047B917F0020FD5
:104380007ED0002635462022D3F8048048F080688D
:10439000C3F80480CCF80090D3F8048048F080681B
:1043A000C3F80480DBF8008018F4005818BF4FF001
:1043B0000108D3F804A04AF0806AC3F804A0C4F846
:1043C00000907608454446EAC876521EDCD15A6809
:1043D000984642F080625A604A46CCF80090D3F882
:1043E00004A04AF0806AC3F804A0DBF800A01AF425
:1043F000005A18BF4FF0010AD8F804B04BF0806B98
:10440000C8F804B0226085EA0A0515F0010F18BF4C
:104410000820002918BF0E603649097E89B100BF07
:10442000D8F8045045F08065C8F80450CCF8002056
:10443000D8F8045045F08065C8F804502260491E41
:10444000EED1D8F8041041F08061C8F80410284972
:104450000A6822F4700242F440120A60CCF800E0CC
:1044600017F0800F03D025494968224A91602149FD
:10447000097B00297DD05A6842F080625A6000E0D2
:1044800010E0CCF800E05A6842F080625A60CCF844
:1044900000905A6842F080625A60C4F80090491E49
:1044A000F1D1B2E06AB15D6845F080655D60CCF83D
:1044B00000905D6845F080655D60C4F80090521E14
:1044C000F1D15A6842F080625A60094A156825F4B1
:1044D000700545F440151560F046CCF800E00E6814
:1044E000002120221D460BE0000001401008014081
:1044F000040801400801002008080140001000E005
:10450000D5F804A04AF0806AC5F804A016F0010F9F
:1045100014BFC4F80080CCF80080D5F804A04AF09D
:10452000806AC5F804A0CCF80090D5F804A04AF041
:10453000806AC5F804A0C4F8009031447608521E81
:10454000D1D16A6842F080626A6011F0010F14BF35
:10455000C4F80080CCF80080696841F0806169602F
:10456000CCF80090696841F080616960C4F80090FF
:1045700076E74AE029494E7E002E1CBF17F0020F55
:1045800021210DD05D6845F080655D60CCF800901C
:104590005D6845F080655D60C4F80090491EF1D10A
:1045A0006AB1596841F080615960CCF8009059684F
:1045B00041F080615960C4F80090521EF1D15968F1
:1045C00041F08061596016490A6822F4700242F491
:1045D00040120A60CCF800E0BEB117F0020F14D10F
:1045E000596841F080615960CCF800E021215A6897
:1045F00042F080625A60CCF800905A6842F08062C3
:104600005A60C4F80090491EF1D1596841F08061A8
:104610005960C4F800E0BDE8F08F000008010020F8
:10462000040801402DE9F04FDFF808C4DCF804204D
:1046300042F08062CCF80420FF4F4FF400543C60FD
:10464000DCF8042042F08062CCF804203E1D4FF4D8
:104650008049C6F80090DFF8E483D8F804201346B8
:10466000B2F1004F80F061845B1E002BFCDC00BFC8
:10467000DCF8043043F08063CCF80430C7F80090D5
:104680001346B2F1004F38BF531E80F05284002B06
:10469000C8BF5B1EFBDC00BFDCF8043043F0806366
:1046A000CCF8043010F0010F14BF3C603460DCF82B
:1046B000043043F08063CCF80430C6F80090134611
:1046C000B2F1004F38BF531E80F03784002BC8BFB3
:1046D0005B1EFBDCDCF8043043F08063CCF8043074
:1046E000C7F800901346B2F1004F38BF531E80F058
:1046F0003084002BC8BF5B1EFBDCDCF804300546B1
:104700004FEA500A43F08063CCF804301AF0010FEE
:1047100014BF3C603460DCF8043043F08063CCF8B4
:104720000430C6F800901346B2F1004F38BF531E54
:1047300080F01384002BC8BF5B1EFBDCDCF8043068
:1047400043F08063CCF80430C7F800901346B2F110
:10475000004F38BF531E80F00484002BC8BF5B1E7F
:10476000FBDCDCF804308244850843F08063CCF83D
:10477000043015F0010F14BF3C603460DCF80430E5
:1047800043F08063CCF80430C6F800901346B2F1D1
:10479000004F38BF531E80F0E883002BC8BF5B1E5C
:1047A000FBDC00BFDCF8043043F08063CCF804305D
:1047B000C7F800901346B2F1004F38BF531E80F087
:1047C000D783002BC8BF5B1EFBDCAA44DCF8043097
:1047D000C50843F08063CCF8043015F0010F14BF16
:1047E0003C603460DCF8043043F08063CCF8043083
:1047F000C6F800901346B2F1004F38BF531E80F048
:10480000BA83002BC8BF5B1EFBDC00BFDCF80430A2
:1048100043F08063CCF80430C7F800901346B2F13F
:10482000004F38BF531E80F0AB83002BC8BF5B1E08
:10483000FBDC00BF0AEB0503DCF8045045F08065A3
:10484000CCF8045013F0010F14BF3C603460DCF866
:10485000043043F08063CCF80430C6F8009013466F
:10486000B2F1004F38BF531E80F08D83002BC8BFBC
:104870005B1EFBDCDCF8043043F08063CCF80430D2
:10488000C7F800901346B2F1004F38BF531E80F0B6
:104890007D83002BC8BF5B1EFBDC00BFDCF804304F
:1048A00043F08063CCF804303460DCF8043043F02B
:1048B0008063CCF80430C6F800901346B2F1004F84
:1048C00038BF531E80F06583002BC8BF5B1EFBDC26
:1048D000DCF8043043F08063CCF80430C7F8009073
:1048E0001346B2F1004F38BF531E80F05583002BA2
:1048F000C8BF5B1EFBDC00BFDCF8043043F0806304
:10490000CCF804303C60DCF8043043F08063CCF831
:104910000430C6F800901346B2F1004F38BF531E62
:1049200080F03D83002BC8BF5B1EFBDCDCF804304D
:1049300043F08063CCF80430C7F800901346B2F11E
:10494000004F38BF531E80F02D83002BC8BF5B1E65
:10495000FBDC00BFDCF8043043F08063CCF80430AB
:10496000374B1D6825F4700545F400051D605B1488
:104970003B6098F818502C001AD000BFDCF80430C7
:1049800043F08063CCF80430C6F80090B2F1004FD9
:1049900080F00B83DCF8043043F08063CCF8043003
:1049A000C7F80090B2F1004F80F005836D1EE5D18D
:1049B000DCF8043043F08063CCF80430C6F8009093
:1049C0001346B2F1004F38BF531E80F0FA82002B1D
:1049D000C8BF5B1EFBDC6346DCF804C04CF0806C97
:1049E000C3F804C0DFF85CB0DBF800C01CF4005F63
:1049F00014BF01250025D3F804C04CF0806CC3F827
:104A000004C0C7F800909446B2F1004F38BFA2F13D
:104A1000010C80F0D98200BFBCF1000FC8BFACF11F
:104A2000010CF9DCD3F804C04CF0806CC3F804C06E
:104A30000AE00000000001401008014008010020C9
:104A40000408014008080140C6F800909446B2F1FD
:104A5000004F38BFA2F1010C80F0BA82BCF1000F08
:104A6000C8BFACF1010CF9DCD3F804C04CF0806C89
:104A7000C3F804C0DBF800C01CF4005C18BF4FF0A2
:104A8000010CD3F804A04AF0806AC3F804A0C7F868
:104A900000909246B2F1004F38BFA2F1010A80F0B7
:104AA0009B8200BFBAF1000FC8BFAAF1010AF9DC6E
:104AB00045EA4C0C5D6845F080655D60C6F8009085
:104AC0001546B2F1004F38BF551E80F08B82002D85
:104AD000C8BF6D1EFBDC5D6845F080655D60DBF87E
:104AE000005015F4005518BF0125D3F804A04AF072
:104AF000806AC3F804A0C7F800909046B2F1004F56
:104B000038BFA2F1010880F0718200BFB8F1000F38
:104B1000C8BFA8F10108F9DC4CEA8508B8F1010F1B
:104B200034D0B8F1020F18BFB8F1040F00F08C8137
:104B300014F1210115D0586840F080605860C6F823
:104B40000090B2F1004F80F0C582586840F080605C
:104B50005860C7F80090B2F1004F80F0C182491E42
:104B6000E9D1586840F080605860F648016821F447
:104B7000700141F44011016040143060596841F007
:104B80008061596038604046BDE8F08F10F0020F38
:104B90007ED04FF0000A55465FF02004D3F804C0E1
:104BA0004CF0806CC3F804C0C6F80090B2F1004F1E
:104BB00080F02082D3F804C04CF0806CC3F804C0AD
:104BC000DBF800C01CF4005C18BF4FF0010CD3F8F8
:104BD00004E04EF0806EC3F804E0C7F80090B2F134
:104BE000004F80F00F824FEA5A0A65444AEACC7AB5
:104BF000641ED3D15C689C4644F080645C604C4683
:104C0000C6F800909646B2F1004F38BFA2F1010EEF
:104C100080F00082BEF1000FC8BFAEF1010EF9DCDA
:104C2000DCF804E04EF0806ECCF804E0DBF800B075
:104C30001BF4005B18BF4FF0010BDCF804E04EF0F2
:104C4000806ECCF804E03C60DFF8FCE2B2F1004F8B
:104C500080F0E481521E002AFCDC00BF85EA0B02D2
:104C600012F0010F18BF4FF00808002918BFC1F853
:104C700000A09EF81820002A18BFDEF804501AD0B1
:104C8000DCF8041041F08061CCF80410346000E0DE
:104C900021E0B5F1004F80F0C48100BFDCF80410C2
:104CA00041F08061CCF804103C60B5F1004F80F019
:104CB000BE81521EE4D1DCF8041041F08061CCF8D2
:104CC0000410A0490A6822F4700242F440120A60FB
:104CD0004914316084E0CCB1D3F804C04CF0806C4E
:104CE000C3F804C0C6F80090B2F1004F80F0A6816E
:104CF000D3F804C04CF0806CC3F804C0C7F800902F
:104D0000B2F1004F80F0A281641EE5D1D3F804C057
:104D10004CF0806CC3F804C0DFF828C2DCF8004017
:104D200024F4700444F44014CCF800404FF4005ACA
:104D3000C6F800A00024D1F800C02025596841F031
:104D4000806159601CF0010F14BFC7F800A0C6F8BD
:104D500000A0596841F080615960C6F80090B2F136
:104D6000004F6FD2596841F080615960C7F80090D8
:104D7000B2F1004F67D264444FEA5C0C6D1EDDD186
:104D800059689C4641F08061596014F0010F14BFCE
:104D9000C7F800A0C6F800A0DCF8041041F080615C
:104DA000CCF804104C46C6F800901146B2F1004F02
:104DB00038BF511E7ED20029C8BF491EFBDC00BF90
:104DC000DCF8041041F08061CCF804103C60B2F1D2
:104DD000004F38BF511E6ED20029C8BF491EFBDCF0
:104DE00010F0800F03D059484068574988605648F2
:104DF000027BEAB1596841F0806159604FF400517B
:104E000031604168586840F080605860C6F8009092
:104E10000846B1F1004F7DD2586840F0806058607C
:104E2000C7F800900846B1F1004F74D2521EE9D184
:104E3000586840F0806058604FF400503860404639
:104E4000BDE8F08F0AE10FE13F494D7E002D1CBF08
:104E500010F0020F4FF0210C15D0596841F080611D
:104E60005960C6F80090B2F1004F6AD2596841F01B
:104E700080615960C7F80090B2F1004F68D200BF5E
:104E8000BCF1010CE9D19CB1596841F080615960D5
:104E9000C6F80090B2F1004F70D2596841F08061BD
:104EA0005960C7F80090B2F1004F68D2641EEBD190
:104EB000596801E0DEE0E0E041F08061596021499D
:104EC000D1F800C02CF4700C4CF4401CC1F800C0A8
:104ED0004FF4005CC6F800C005B310F0020F1DD1FE
:104EE000586840F080605860C6F800C021215868BA
:104EF00040F080605860C6F80090B2F1004F6FD269
:104F0000586840F080605860C7F80090B2F1004FD8
:104F100067D201E0B4E0B6E0491EE8D1586840F03D
:104F200080605860C7F800C02DE65B1EFDD1FFF71A
:104F30009FBB5B1EFDD1FFF7AFBB5B1EFDD1FFF733
:104F4000C9BBA3E00408014008010020001000E0F4
:104F5000A2E05B1EFDD1FFF7D0BB5B1EFDD1FFF7CA
:104F6000EDBB5B1EFDD1FFF7FCBB5B1EFDD119E461
:104F70005B1EFDD129E45B1EFDD147E492E097E082
:104F80005B1EFDD156E45B1EFDD173E45B1EFDD1BB
:104F900084E45B1EFDD19BE45B1EFDD1ACE45B1E93
:104FA000FDD1C3E45B1EFDD1D4E4531E3FF4F2AC4B
:104FB0005B1EFDD1EEE4531E3FF4F8AC5B1EFDD149
:104FC000F4E45B1EFDD106E5BCF1010CFCD129E542
:104FD000BCF1010CFCD147E5BAF1010AFCD167E54F
:104FE0006CE071E06D1EFDD175E500BFB8F1010800
:104FF000FCD191E5B2F1010C3FF4DCADBCF1010C48
:10500000FCD1D7E5B2F1010E3FF4EDADBEF1010EDA
:10501000FCD1E8E5BEF1010EFCD101E6521EFDD146
:105020001CE6691E3FF43AAE491EFDD136E6691E04
:105030003FF43FAE491EFDD13BE600BFB2F1010C8B
:105040003FF456AEBCF1010CFCD151E6B2F1010CBB
:105050003FF45AAEBCF1010CFCD155E6511E3FF4B1
:1050600081AE491EFDD17DE6511E3FF484AE491E3E
:10507000FDD180E6491EFDD1A2E6521EFDD1AFE66C
:10508000401EFDD1C8E6401EFDD1CFE6511E3FF4C3
:10509000EDAE491EFDD1E9E6511E3FF4F1AE491EC9
:1050A000FDD1EDE6511E3FF4F8AE491EFDD1F4E608
:1050B000511E3FF4FBAE491EFDD1F7E6501E3FF4F2
:1050C0001FAF401EFDD11BE7501E3FF422AF401E14
:1050D000FDD11EE7501E3FF438AD401EFDD134E532
:1050E000501E3FF43CAD401EFDD138E52DE9F003E4
:1050F0000028DCBFBDE8F00370474FF400594FF4BF
:105100008046204A1D4F1E4CD2F80430A7F10408F7
:1051100011F801CB5FF0080562681CF0010F42F046
:105120008062626014BFC8F80090C7F8009062689F
:1051300042F0806262603E60B3F1004F14D2626858
:1051400042F080626260C8F80060B3F1004F10D294
:10515000401E6D1E4FEA5C0C0028DCBFBDE8F0036A
:105160007047002DD8D1D3E75A1EE8D0521EFDD18A
:10517000E5E75A1EECD0521EFDD1E9E714080140C4
:10518000000001400801002070B50C46C17800689D
:105190000C4D61F31F60A978012918BF00200BD0C6
:1051A0000021E9702070010A6170010CA170000EED
:1051B000E0704FF0041070BD00F062FA0028F1D1E9
:1051C000EEE70000240000202DE9F0410078114CAA
:1051D00000F001060025E0780F4600F00100B04223
:1051E00010D02EB1A01D057045702571A560E56039
:1051F000A078012808D1304600F096FA002818BFA0
:10520000E67001D03D7001E0FF2038704FF00110D2
:10521000BDE8F081240000202DE9F047324C8046A3
:105220000E462279A11D82F001002071E0788B5C8E
:105230004FF0000943EA000701F80290012811D05D
:10524000A068E168451A6178012918BF002518D0C7
:1052500006F8017B280A06F8015B012906F8010B14
:1052600016D038E084F80590A068E168451AA07867
:10527000012802D100F088FA054460790028F1D1B4
:10528000E1E7B8F800003C282AD88542E0D929E0B7
:10529000E368DFF858C01846290008D0C0F30B02B5
:1052A0001CF8020006F8010B501C491EF6D15819D3
:1052B000E060E07803280ED1A068E168411AB1F5FA
:1052C000805F08D2A178C0F30B00012903D1E170FF
:1052D000604400F01FFAE81C40F40030BDE8F0879D
:1052E0003C20D2E70546B3E7240000204C01002013
:1052F0002DE9F0411C4D002790F800C0EB780C46DA
:105300001CF0010FB8460BD02879AA1D80F00101CE
:105310002971115C02F80080194304F8011B012770
:105320001CF0020F0CD0012B0ED0A868E968461AB9
:105330002670300A6070300CA070300EE0703F1D97
:1053400047F48030BDE8F08185F80580A868E968F9
:10535000461AA878012802D100F016FA06446879A6
:105360000028F1D1E4E70000240000202DE9F041FD
:10537000114C07780E46A078012804BF002000F0E9
:1053800011FA0025002F08BF012005D0012F0AD1F6
:10539000012000F007FA30B1A770E570002818BFAF
:1053A000357004D101E0A570E570FF2030704FF03A
:1053B0000110BDE8F0810000240000202DE9F0413B
:1053C000154D07460026287980F001012971A91D95
:1053D000EA780B5C0E5443EA0208012A0ED0A86852
:1053E000E968441A87F800807C70200AB870200CA5
:1053F000F870200E38710520BDE8F0816E71A86844
:10540000E968441AA878012802D100F0BDF90444E3
:1054100068790028F2D1E5E724000020084AD37813
:1054200013F0010F04D0FF2008704FF001107047F7
:105430000078002812BF012850700020F3D1F3E754
:10544000240000204FF0E021042808690CBF40F040
:10545000040020F00400086170470000154830B4D3
:105460000178DFF854C0491ECBB2037044784FF482
:10547000007114F0020FACF1040206D024F0020413
:10548000447013F0010F03D011E013F0070F0ED09A
:105490001160407810F0010F04BF30BC704713F06A
:1054A000030F0CBFCCF80010116030BC7047CCF873
:1054B0000010EEE70000002014080140164948687B
:1054C000164A10F00C03164818BF042B01D0082B05
:1054D00001D0026015E04A684B6802F470124FF088
:1054E000020C13F4803F0CEB924203D04B6813F490
:1054F000003F03D00B4B5A43026002E0074B5A4374
:1055000002604968084AC1F30311515C026822FA3B
:1055100001F10160704700000010024000127A00A3
:105520000C00002000093D0010000020384881B028
:10553000016841F0010101604168364A1140416053
:10554000016821F4102121F080710160016821F4CB
:1055500080210160416821F4FE0141604FF41F0188
:10556000816000220092016841F48031016001688D
:1055700011F4003F03D10099B1F5A06FF7D1016894
:1055800011F4003F18BF00923BD023490A6842F053
:1055900010020A600A6822F003020A600A6842F0F8
:1055A00002020A604168416041684160416841F41B
:1055B00080614160416821F47C11416000990029BB
:1055C000416814BF41F4D00141F4E8114160016821
:1055D00041F080710160016811F0007FFBD04168EB
:1055E00021F003014160416841F0020141604168DE
:1055F00001F00C010829FAD108060849086001B039
:105600007047016821F48031016001210091BCE7FD
:10561000001002400000FFF80020024008ED00E00A
:1056200070B504461148124D14F0020F017841F094
:105630000201017009D00F48016801F58061016025
:10564000AA694FF480610C48904714F0010F08BF1D
:1056500070BD4FF48061094801F032FB011ED8BFD4
:1056600070BD06486A69BDE870401047010000201F
:105670005C8B000860000020FE320020FE36002017
:1056800070B506461F48864288BF06461E4C1F4D11
:10569000E07810F0010F11D00021AA6A162090477F
:1056A000E86A804710F0020F08D0686A8047A16856
:1056B0000844A0600021AA6A19209047AA6A3146CE
:1056C0000120904710B10020207070BD0120207093
:1056D000E07810F0010F12D010F0020F0BD1A0688B
:1056E0000B4AC0F30B0000F03F01C1F14001104430
:1056F0002161AA6990470121AA6A16209047304685
:1057000070BD000040420F0024000020248B0008E0
:105710004C010020024A1161024A926910470000C0
:1057200024000020248B000870B5144D144C88B15F
:105730002878002808BF70BD012028610146A269B1
:105740001048904720B90121A26A1620904798B1CD
:10575000002070BD0021A26A16209047E06A8047B1
:1057600010F0020F08D0606A8047A9680844A8605A
:105770000021A26A19209047012070BD240000205A
:10578000248B00084C01002010B5054CE06A8047CE
:1057900010F0020008BF10BD606ABDE8104000476D
:1057A000248B000810B5114A0021114C117070B102
:1057B000A1681048884700281CBF002010BD0220A7
:1057C0002169884780B1E0688047002010BD002132
:1057D000A26A162090470021A26A192090472169E9
:1057E00000208847E0688047012010BD2400002089
:1057F000248B0008E15D0008014A00F02DBB000089
:105800007C8A000801480068704700007C8A000814
:1058100081B0009820F0010000901E48016B0969DA
:10582000002918BFB1F5803F0ED1C16961B1096887
:10583000C0698968007921FA00F010F0010F03D1E6
:10584000009840F001000090009820F002000090C5
:10585000009820F008000090009820F004000090CC
:10586000009961F3000000994FEA510161F3410092
:1058700000994FEA910161F3820000994FEAD1014A
:1058800061F3C300009901B04FEA111161F31F10D9
:10589000704700007C8A00080648C16A002902BFE0
:1058A000406B0069704709684968406B0068401A9E
:1058B000704700007C8A00082C4881B0416B91F849
:1058C000211000291CBF009941F0010107D1416856
:1058D0000988012222EA9112009962F300010091E5
:1058E000016B4A79009962F341010091016B8A7959
:1058F000009962F382010091016BCA79009962F309
:10590000C3010091016B0A7A009962F304110091BE
:10591000016B4A7A009962F345110091006B817A1C
:10592000009861F386100090009961F300000099DF
:10593000490861F341000099890861F382000099E8
:10594000C90861F3C3000099090961F304100099C3
:10595000490961F345100099890961F3861000999E
:1059600001B0C90961F3DF10704700007C8A0008AC
:105970000648816A002902BF406B40697047096888
:105980004968406B4068401A704700007C8A0008F4
:10599000014800F091BD00007C8A0008014900F038
:1059A000D0BE00007C8A0008014900F019BF000049
:1059B0007C8A0008014A01F077B800007C8A000860
:1059C000014A01F00AB900007C8A00081649012248
:1059D00028B1012813D000BF4FF0FF307047086B8B
:1059E0000069002818BFB0F5003FF5D18869B8B14B
:1059F00089690068097902FA01F1016110E0086B18
:105A00000069002818BFB0F5003FE5D1886938B1BA
:105A100089690068097901F1100102FA01F1016157
:105A20004FF00000704700007C8A000870B5144EEB
:105A300005000B46144619BF002B002C6FF0040024
:105A400070BD316BC87A10F0040F4FF0FF3008BF03
:105A500070BDC968022918BF70BD0320716B324642
:105A6000C8612146184601F01FF8002818BF70BD14
:105A7000324621462846BDE8704001F0AEB800002D
:105A80007C8A000810B5184CE06828B18188002392
:105A900000681A46FBF722FE206928B1818800239E
:105AA00000681A46FBF71AFE606928B18188002356
:105AB00000681A46FBF712FEA06928B1818800230E
:105AC00000681A46FBF70AFEE06928B181880023C6
:105AD00000681A46FBF702FE208CFBF775FD216B70
